{
  "_format": "hh-sol-artifact-1",
  "contractName": "MyNFT",
  "sourceName": "contracts/MyNFT.sol",
  "abi": [
    {
      "inputs": [
        {
          "internalType": "string",
          "name": "_name",
          "type": "string"
        },
        {
          "internalType": "string",
          "name": "_symbol",
          "type": "string"
        },
        {
          "internalType": "string",
          "name": "_initBaseURI",
          "type": "string"
        }
      ],
      "stateMutability": "nonpayable",
      "type": "constructor"
    },
    {
      "inputs": [
        {
          "internalType": "uint256",
          "name": "numerator",
          "type": "uint256"
        },
        {
          "internalType": "uint256",
          "name": "denominator",
          "type": "uint256"
        }
      ],
      "name": "ERC2981InvalidDefaultRoyalty",
      "type": "error"
    },
    {
      "inputs": [
        {
          "internalType": "address",
          "name": "receiver",
          "type": "address"
        }
      ],
      "name": "ERC2981InvalidDefaultRoyaltyReceiver",
      "type": "error"
    },
    {
      "inputs": [
        {
          "internalType": "uint256",
          "name": "tokenId",
          "type": "uint256"
        },
        {
          "internalType": "uint256",
          "name": "numerator",
          "type": "uint256"
        },
        {
          "internalType": "uint256",
          "name": "denominator",
          "type": "uint256"
        }
      ],
      "name": "ERC2981InvalidTokenRoyalty",
      "type": "error"
    },
    {
      "inputs": [
        {
          "internalType": "uint256",
          "name": "tokenId",
          "type": "uint256"
        },
        {
          "internalType": "address",
          "name": "receiver",
          "type": "address"
        }
      ],
      "name": "ERC2981InvalidTokenRoyaltyReceiver",
      "type": "error"
    },
    {
      "inputs": [
        {
          "internalType": "address",
          "name": "sender",
          "type": "address"
        },
        {
          "internalType": "uint256",
          "name": "tokenId",
          "type": "uint256"
        },
        {
          "internalType": "address",
          "name": "owner",
          "type": "address"
        }
      ],
      "name": "ERC721IncorrectOwner",
      "type": "error"
    },
    {
      "inputs": [
        {
          "internalType": "address",
          "name": "operator",
          "type": "address"
        },
        {
          "internalType": "uint256",
          "name": "tokenId",
          "type": "uint256"
        }
      ],
      "name": "ERC721InsufficientApproval",
      "type": "error"
    },
    {
      "inputs": [
        {
          "internalType": "address",
          "name": "approver",
          "type": "address"
        }
      ],
      "name": "ERC721InvalidApprover",
      "type": "error"
    },
    {
      "inputs": [
        {
          "internalType": "address",
          "name": "operator",
          "type": "address"
        }
      ],
      "name": "ERC721InvalidOperator",
      "type": "error"
    },
    {
      "inputs": [
        {
          "internalType": "address",
          "name": "owner",
          "type": "address"
        }
      ],
      "name": "ERC721InvalidOwner",
      "type": "error"
    },
    {
      "inputs": [
        {
          "internalType": "address",
          "name": "receiver",
          "type": "address"
        }
      ],
      "name": "ERC721InvalidReceiver",
      "type": "error"
    },
    {
      "inputs": [
        {
          "internalType": "address",
          "name": "sender",
          "type": "address"
        }
      ],
      "name": "ERC721InvalidSender",
      "type": "error"
    },
    {
      "inputs": [
        {
          "internalType": "uint256",
          "name": "tokenId",
          "type": "uint256"
        }
      ],
      "name": "ERC721NonexistentToken",
      "type": "error"
    },
    {
      "inputs": [
        {
          "internalType": "address",
          "name": "owner",
          "type": "address"
        }
      ],
      "name": "OwnableInvalidOwner",
      "type": "error"
    },
    {
      "inputs": [
        {
          "internalType": "address",
          "name": "account",
          "type": "address"
        }
      ],
      "name": "OwnableUnauthorizedAccount",
      "type": "error"
    },
    {
      "inputs": [],
      "name": "ReentrancyGuardReentrantCall",
      "type": "error"
    },
    {
      "anonymous": false,
      "inputs": [
        {
          "indexed": true,
          "internalType": "address",
          "name": "owner",
          "type": "address"
        },
        {
          "indexed": true,
          "internalType": "address",
          "name": "approved",
          "type": "address"
        },
        {
          "indexed": true,
          "internalType": "uint256",
          "name": "tokenId",
          "type": "uint256"
        }
      ],
      "name": "Approval",
      "type": "event"
    },
    {
      "anonymous": false,
      "inputs": [
        {
          "indexed": true,
          "internalType": "address",
          "name": "owner",
          "type": "address"
        },
        {
          "indexed": true,
          "internalType": "address",
          "name": "operator",
          "type": "address"
        },
        {
          "indexed": false,
          "internalType": "bool",
          "name": "approved",
          "type": "bool"
        }
      ],
      "name": "ApprovalForAll",
      "type": "event"
    },
    {
      "anonymous": false,
      "inputs": [
        {
          "indexed": true,
          "internalType": "address",
          "name": "previousOwner",
          "type": "address"
        },
        {
          "indexed": true,
          "internalType": "address",
          "name": "newOwner",
          "type": "address"
        }
      ],
      "name": "OwnershipTransferred",
      "type": "event"
    },
    {
      "anonymous": false,
      "inputs": [
        {
          "indexed": true,
          "internalType": "address",
          "name": "from",
          "type": "address"
        },
        {
          "indexed": true,
          "internalType": "address",
          "name": "to",
          "type": "address"
        },
        {
          "indexed": true,
          "internalType": "uint256",
          "name": "tokenId",
          "type": "uint256"
        }
      ],
      "name": "Transfer",
      "type": "event"
    },
    {
      "inputs": [],
      "name": "MAX_PER_WALLET",
      "outputs": [
        {
          "internalType": "uint256",
          "name": "",
          "type": "uint256"
        }
      ],
      "stateMutability": "view",
      "type": "function"
    },
    {
      "inputs": [],
      "name": "MAX_SUPPLY",
      "outputs": [
        {
          "internalType": "uint256",
          "name": "",
          "type": "uint256"
        }
      ],
      "stateMutability": "view",
      "type": "function"
    },
    {
      "inputs": [
        {
          "internalType": "bytes32[]",
          "name": "merkleProof",
          "type": "bytes32[]"
        },
        {
          "internalType": "uint256",
          "name": "quantity",
          "type": "uint256"
        }
      ],
      "name": "allowlistMint",
      "outputs": [],
      "stateMutability": "payable",
      "type": "function"
    },
    {
      "inputs": [
        {
          "internalType": "address",
          "name": "to",
          "type": "address"
        },
        {
          "internalType": "uint256",
          "name": "tokenId",
          "type": "uint256"
        }
      ],
      "name": "approve",
      "outputs": [],
      "stateMutability": "nonpayable",
      "type": "function"
    },
    {
      "inputs": [
        {
          "internalType": "address",
          "name": "owner",
          "type": "address"
        }
      ],
      "name": "balanceOf",
      "outputs": [
        {
          "internalType": "uint256",
          "name": "",
          "type": "uint256"
        }
      ],
      "stateMutability": "view",
      "type": "function"
    },
    {
      "inputs": [],
      "name": "baseURI",
      "outputs": [
        {
          "internalType": "string",
          "name": "",
          "type": "string"
        }
      ],
      "stateMutability": "view",
      "type": "function"
    },
    {
      "inputs": [
        {
          "internalType": "uint256",
          "name": "tokenId",
          "type": "uint256"
        }
      ],
      "name": "getApproved",
      "outputs": [
        {
          "internalType": "address",
          "name": "",
          "type": "address"
        }
      ],
      "stateMutability": "view",
      "type": "function"
    },
    {
      "inputs": [
        {
          "internalType": "address",
          "name": "owner",
          "type": "address"
        },
        {
          "internalType": "address",
          "name": "operator",
          "type": "address"
        }
      ],
      "name": "isApprovedForAll",
      "outputs": [
        {
          "internalType": "bool",
          "name": "",
          "type": "bool"
        }
      ],
      "stateMutability": "view",
      "type": "function"
    },
    {
      "inputs": [],
      "name": "isRevealed",
      "outputs": [
        {
          "internalType": "bool",
          "name": "",
          "type": "bool"
        }
      ],
      "stateMutability": "view",
      "type": "function"
    },
    {
      "inputs": [],
      "name": "merkleRoot",
      "outputs": [
        {
          "internalType": "bytes32",
          "name": "",
          "type": "bytes32"
        }
      ],
      "stateMutability": "view",
      "type": "function"
    },
    {
      "inputs": [],
      "name": "mintPrice",
      "outputs": [
        {
          "internalType": "uint256",
          "name": "",
          "type": "uint256"
        }
      ],
      "stateMutability": "view",
      "type": "function"
    },
    {
      "inputs": [
        {
          "internalType": "address",
          "name": "",
          "type": "address"
        }
      ],
      "name": "mintedPerWallet",
      "outputs": [
        {
          "internalType": "uint256",
          "name": "",
          "type": "uint256"
        }
      ],
      "stateMutability": "view",
      "type": "function"
    },
    {
      "inputs": [],
      "name": "name",
      "outputs": [
        {
          "internalType": "string",
          "name": "",
          "type": "string"
        }
      ],
      "stateMutability": "view",
      "type": "function"
    },
    {
      "inputs": [],
      "name": "owner",
      "outputs": [
        {
          "internalType": "address",
          "name": "",
          "type": "address"
        }
      ],
      "stateMutability": "view",
      "type": "function"
    },
    {
      "inputs": [
        {
          "internalType": "uint256",
          "name": "tokenId",
          "type": "uint256"
        }
      ],
      "name": "ownerOf",
      "outputs": [
        {
          "internalType": "address",
          "name": "",
          "type": "address"
        }
      ],
      "stateMutability": "view",
      "type": "function"
    },
    {
      "inputs": [
        {
          "internalType": "uint256",
          "name": "quantity",
          "type": "uint256"
        }
      ],
      "name": "publicMint",
      "outputs": [],
      "stateMutability": "payable",
      "type": "function"
    },
    {
      "inputs": [],
      "name": "renounceOwnership",
      "outputs": [],
      "stateMutability": "nonpayable",
      "type": "function"
    },
    {
      "inputs": [],
      "name": "reveal",
      "outputs": [],
      "stateMutability": "nonpayable",
      "type": "function"
    },
    {
      "inputs": [],
      "name": "revealedURI",
      "outputs": [
        {
          "internalType": "string",
          "name": "",
          "type": "string"
        }
      ],
      "stateMutability": "view",
      "type": "function"
    },
    {
      "inputs": [
        {
          "internalType": "uint256",
          "name": "tokenId",
          "type": "uint256"
        },
        {
          "internalType": "uint256",
          "name": "salePrice",
          "type": "uint256"
        }
      ],
      "name": "royaltyInfo",
      "outputs": [
        {
          "internalType": "address",
          "name": "receiver",
          "type": "address"
        },
        {
          "internalType": "uint256",
          "name": "amount",
          "type": "uint256"
        }
      ],
      "stateMutability": "view",
      "type": "function"
    },
    {
      "inputs": [
        {
          "internalType": "address",
          "name": "from",
          "type": "address"
        },
        {
          "internalType": "address",
          "name": "to",
          "type": "address"
        },
        {
          "internalType": "uint256",
          "name": "tokenId",
          "type": "uint256"
        }
      ],
      "name": "safeTransferFrom",
      "outputs": [],
      "stateMutability": "nonpayable",
      "type": "function"
    },
    {
      "inputs": [
        {
          "internalType": "address",
          "name": "from",
          "type": "address"
        },
        {
          "internalType": "address",
          "name": "to",
          "type": "address"
        },
        {
          "internalType": "uint256",
          "name": "tokenId",
          "type": "uint256"
        },
        {
          "internalType": "bytes",
          "name": "data",
          "type": "bytes"
        }
      ],
      "name": "safeTransferFrom",
      "outputs": [],
      "stateMutability": "nonpayable",
      "type": "function"
    },
    {
      "inputs": [],
      "name": "saleState",
      "outputs": [
        {
          "internalType": "enum MyNFT.SaleState",
          "name": "",
          "type": "uint8"
        }
      ],
      "stateMutability": "view",
      "type": "function"
    },
    {
      "inputs": [
        {
          "internalType": "address",
          "name": "operator",
          "type": "address"
        },
        {
          "internalType": "bool",
          "name": "approved",
          "type": "bool"
        }
      ],
      "name": "setApprovalForAll",
      "outputs": [],
      "stateMutability": "nonpayable",
      "type": "function"
    },
    {
      "inputs": [
        {
          "internalType": "string",
          "name": "_newBaseURI",
          "type": "string"
        }
      ],
      "name": "setBaseURI",
      "outputs": [],
      "stateMutability": "nonpayable",
      "type": "function"
    },
    {
      "inputs": [
        {
          "internalType": "address",
          "name": "receiver",
          "type": "address"
        },
        {
          "internalType": "uint96",
          "name": "feeNumerator",
          "type": "uint96"
        }
      ],
      "name": "setDefaultRoyalty",
      "outputs": [],
      "stateMutability": "nonpayable",
      "type": "function"
    },
    {
      "inputs": [
        {
          "internalType": "bytes32",
          "name": "_merkleRoot",
          "type": "bytes32"
        }
      ],
      "name": "setMerkleRoot",
      "outputs": [],
      "stateMutability": "nonpayable",
      "type": "function"
    },
    {
      "inputs": [
        {
          "internalType": "uint256",
          "name": "_price",
          "type": "uint256"
        }
      ],
      "name": "setMintPrice",
      "outputs": [],
      "stateMutability": "nonpayable",
      "type": "function"
    },
    {
      "inputs": [
        {
          "internalType": "string",
          "name": "_newRevealedURI",
          "type": "string"
        }
      ],
      "name": "setRevealedURI",
      "outputs": [],
      "stateMutability": "nonpayable",
      "type": "function"
    },
    {
      "inputs": [
        {
          "internalType": "enum MyNFT.SaleState",
          "name": "_state",
          "type": "uint8"
        }
      ],
      "name": "setSaleState",
      "outputs": [],
      "stateMutability": "nonpayable",
      "type": "function"
    },
    {
      "inputs": [
        {
          "internalType": "bytes4",
          "name": "interfaceId",
          "type": "bytes4"
        }
      ],
      "name": "supportsInterface",
      "outputs": [
        {
          "internalType": "bool",
          "name": "",
          "type": "bool"
        }
      ],
      "stateMutability": "view",
      "type": "function"
    },
    {
      "inputs": [],
      "name": "symbol",
      "outputs": [
        {
          "internalType": "string",
          "name": "",
          "type": "string"
        }
      ],
      "stateMutability": "view",
      "type": "function"
    },
    {
      "inputs": [
        {
          "internalType": "uint256",
          "name": "tokenId",
          "type": "uint256"
        }
      ],
      "name": "tokenURI",
      "outputs": [
        {
          "internalType": "string",
          "name": "",
          "type": "string"
        }
      ],
      "stateMutability": "view",
      "type": "function"
    },
    {
      "inputs": [],
      "name": "totalSupply",
      "outputs": [
        {
          "internalType": "uint256",
          "name": "",
          "type": "uint256"
        }
      ],
      "stateMutability": "view",
      "type": "function"
    },
    {
      "inputs": [
        {
          "internalType": "address",
          "name": "from",
          "type": "address"
        },
        {
          "internalType": "address",
          "name": "to",
          "type": "address"
        },
        {
          "internalType": "uint256",
          "name": "tokenId",
          "type": "uint256"
        }
      ],
      "name": "transferFrom",
      "outputs": [],
      "stateMutability": "nonpayable",
      "type": "function"
    },
    {
      "inputs": [
        {
          "internalType": "address",
          "name": "newOwner",
          "type": "address"
        }
      ],
      "name": "transferOwnership",
      "outputs": [],
      "stateMutability": "nonpayable",
      "type": "function"
    },
    {
      "inputs": [],
      "name": "withdraw",
      "outputs": [],
      "stateMutability": "nonpayable",
      "type": "function"
    }
  ],
  "bytecode": "0x608060405266b1a2bc2ec50000600a553480156200001c57600080fd5b50604051620049f4380380620049f483398181016040528101906200004291906200056a565b33838381600090816200005691906200086e565b5080600190816200006891906200086e565b505050600073ffffffffffffffffffffffffffffffffffffffff168173ffffffffffffffffffffffffffffffffffffffff1603620000e05760006040517f1e4fbdf7000000000000000000000000000000000000000000000000000000008152600401620000d791906200099a565b60405180910390fd5b620000f1816200015760201b60201c565b50600160098190555080600b90816200010b91906200086e565b506000600f60006101000a81548160ff02191690836002811115620001355762000134620009b7565b5b02179055506200014e336101f46200021d60201b60201c565b50505062000a75565b6000600660009054906101000a900473ffffffffffffffffffffffffffffffffffffffff16905081600660006101000a81548173ffffffffffffffffffffffffffffffffffffffff021916908373ffffffffffffffffffffffffffffffffffffffff1602179055508173ffffffffffffffffffffffffffffffffffffffff168173ffffffffffffffffffffffffffffffffffffffff167f8be0079c531659141344cd1fd0a4f28419497f9722a3daafe3b4186f6b6457e060405160405180910390a35050565b60006200022f620003cd60201b60201c565b6bffffffffffffffffffffffff16905080826bffffffffffffffffffffffff161115620002975781816040517f6f483d090000000000000000000000000000000000000000000000000000000081526004016200028e92919062000a48565b60405180910390fd5b600073ffffffffffffffffffffffffffffffffffffffff168373ffffffffffffffffffffffffffffffffffffffff16036200030c5760006040517fb6d9900a0000000000000000000000000000000000000000000000000000000081526004016200030391906200099a565b60405180910390fd5b60405180604001604052808473ffffffffffffffffffffffffffffffffffffffff168152602001836bffffffffffffffffffffffff16815250600760008201518160000160006101000a81548173ffffffffffffffffffffffffffffffffffffffff021916908373ffffffffffffffffffffffffffffffffffffffff16021790555060208201518160000160146101000a8154816bffffffffffffffffffffffff02191690836bffffffffffffffffffffffff160217905550905050505050565b6000612710905090565b6000604051905090565b600080fd5b600080fd5b600080fd5b600080fd5b6000601f19601f8301169050919050565b7f4e487b7100000000000000000000000000000000000000000000000000000000600052604160045260246000fd5b6200044082620003f5565b810181811067ffffffffffffffff8211171562000462576200046162000406565b5b80604052505050565b600062000477620003d7565b905062000485828262000435565b919050565b600067ffffffffffffffff821115620004a857620004a762000406565b5b620004b382620003f5565b9050602081019050919050565b60005b83811015620004e0578082015181840152602081019050620004c3565b60008484015250505050565b600062000503620004fd846200048a565b6200046b565b905082815260208101848484011115620005225762000521620003f0565b5b6200052f848285620004c0565b509392505050565b600082601f8301126200054f576200054e620003eb565b5b815162000561848260208601620004ec565b91505092915050565b600080600060608486031215620005865762000585620003e1565b5b600084015167ffffffffffffffff811115620005a757620005a6620003e6565b5b620005b58682870162000537565b935050602084015167ffffffffffffffff811115620005d957620005d8620003e6565b5b620005e78682870162000537565b925050604084015167ffffffffffffffff8111156200060b576200060a620003e6565b5b620006198682870162000537565b9150509250925092565b600081519050919050565b7f4e487b7100000000000000000000000000000000000000000000000000000000600052602260045260246000fd5b600060028204905060018216806200067657607f821691505b6020821081036200068c576200068b6200062e565b5b50919050565b60008190508160005260206000209050919050565b60006020601f8301049050919050565b600082821b905092915050565b600060088302620006f67fffffffffffffffffffffffffffffffffffffffffffffffffffffffffffffffff82620006b7565b620007028683620006b7565b95508019841693508086168417925050509392505050565b6000819050919050565b6000819050919050565b60006200074f6200074962000743846200071a565b62000724565b6200071a565b9050919050565b6000819050919050565b6200076b836200072e565b620007836200077a8262000756565b848454620006c4565b825550505050565b600090565b6200079a6200078b565b620007a781848462000760565b505050565b5b81811015620007cf57620007c360008262000790565b600181019050620007ad565b5050565b601f8211156200081e57620007e88162000692565b620007f384620006a7565b8101602085101562000803578190505b6200081b6200081285620006a7565b830182620007ac565b50505b505050565b600082821c905092915050565b6000620008436000198460080262000823565b1980831691505092915050565b60006200085e838362000830565b9150826002028217905092915050565b620008798262000623565b67ffffffffffffffff81111562000895576200089462000406565b5b620008a182546200065d565b620008ae828285620007d3565b600060209050601f831160018114620008e65760008415620008d1578287015190505b620008dd858262000850565b8655506200094d565b601f198416620008f68662000692565b60005b828110156200092057848901518255600182019150602085019450602081019050620008f9565b868310156200094057848901516200093c601f89168262000830565b8355505b6001600288020188555050505b505050505050565b600073ffffffffffffffffffffffffffffffffffffffff82169050919050565b6000620009828262000955565b9050919050565b620009948162000975565b82525050565b6000602082019050620009b1600083018462000989565b92915050565b7f4e487b7100000000000000000000000000000000000000000000000000000000600052602160045260246000fd5b60006bffffffffffffffffffffffff82169050919050565b600062000a1f62000a1962000a1384620009e6565b62000724565b6200071a565b9050919050565b62000a3181620009fe565b82525050565b62000a42816200071a565b82525050565b600060408201905062000a5f600083018562000a26565b62000a6e602083018462000a37565b9392505050565b613f6f8062000a856000396000f3fe60806040526004361061021a5760003560e01c806355f804b3116101235780638da5cb5b116100ab578063c87b56dd1161006f578063c87b56dd1461077e578063e985e9c5146107bb578063f2fde38b146107f8578063f4a0a52814610821578063f7e8d6ea1461084a5761021a565b80638da5cb5b146106bf57806395d89b41146106ea578063a22cb46514610715578063a475b5dd1461073e578063b88d4fde146107555761021a565b80636817c76c116100f25780636817c76c146105ec5780636c0360eb1461061757806370a0823114610642578063715018a61461067f5780637cb64759146106965761021a565b806355f804b3146105325780635a67de071461055b578063603f4d52146105845780636352211e146105af5761021a565b80632a55205a116101a657806332cb6b0c1161017557806332cb6b0c1461045f5780633a602b4d1461048a5780633ccfd60b146104c757806342842e0e146104de57806354214f69146105075761021a565b80632a55205a146103b15780632db11544146103ef5780632eb4a7ab1461040b578063326d4388146104365761021a565b8063095ea7b3116101ed578063095ea7b3146102ed5780630f2cdd6c146103165780631338a83f1461034157806318160ddd1461035d57806323b872dd146103885761021a565b806301ffc9a71461021f57806304634d8d1461025c57806306fdde0314610285578063081812fc146102b0575b600080fd5b34801561022b57600080fd5b5061024660048036038101906102419190612b10565b610875565b6040516102539190612b58565b60405180910390f35b34801561026857600080fd5b50610283600480360381019061027e9190612c15565b610887565b005b34801561029157600080fd5b5061029a61089d565b6040516102a79190612ce5565b60405180910390f35b3480156102bc57600080fd5b506102d760048036038101906102d29190612d3d565b61092f565b6040516102e49190612d79565b60405180910390f35b3480156102f957600080fd5b50610314600480360381019061030f9190612d94565b61094b565b005b34801561032257600080fd5b5061032b610961565b6040516103389190612de3565b60405180910390f35b61035b60048036038101906103569190612e63565b610966565b005b34801561036957600080fd5b50610372610c26565b60405161037f9190612de3565b60405180910390f35b34801561039457600080fd5b506103af60048036038101906103aa9190612ec3565b610c2c565b005b3480156103bd57600080fd5b506103d860048036038101906103d39190612f16565b610d2e565b6040516103e6929190612f56565b60405180910390f35b61040960048036038101906104049190612d3d565b610e5e565b005b34801561041757600080fd5b50610420611062565b60405161042d9190612f98565b60405180910390f35b34801561044257600080fd5b5061045d60048036038101906104589190613009565b611068565b005b34801561046b57600080fd5b50610474611086565b6040516104819190612de3565b60405180910390f35b34801561049657600080fd5b506104b160048036038101906104ac9190613056565b61108c565b6040516104be9190612de3565b60405180910390f35b3480156104d357600080fd5b506104dc6110a4565b005b3480156104ea57600080fd5b5061050560048036038101906105009190612ec3565b611172565b005b34801561051357600080fd5b5061051c611192565b6040516105299190612b58565b60405180910390f35b34801561053e57600080fd5b5061055960048036038101906105549190613009565b6111a5565b005b34801561056757600080fd5b50610582600480360381019061057d91906130a8565b6111c3565b005b34801561059057600080fd5b506105996111f8565b6040516105a6919061314c565b60405180910390f35b3480156105bb57600080fd5b506105d660048036038101906105d19190612d3d565b61120b565b6040516105e39190612d79565b60405180910390f35b3480156105f857600080fd5b5061060161121d565b60405161060e9190612de3565b60405180910390f35b34801561062357600080fd5b5061062c611223565b6040516106399190612ce5565b60405180910390f35b34801561064e57600080fd5b5061066960048036038101906106649190613056565b6112b1565b6040516106769190612de3565b60405180910390f35b34801561068b57600080fd5b5061069461136b565b005b3480156106a257600080fd5b506106bd60048036038101906106b89190613193565b61137f565b005b3480156106cb57600080fd5b506106d4611391565b6040516106e19190612d79565b60405180910390f35b3480156106f657600080fd5b506106ff6113bb565b60405161070c9190612ce5565b60405180910390f35b34801561072157600080fd5b5061073c600480360381019061073791906131ec565b61144d565b005b34801561074a57600080fd5b50610753611463565b005b34801561076157600080fd5b5061077c6004803603810190610777919061335c565b611488565b005b34801561078a57600080fd5b506107a560048036038101906107a09190612d3d565b6114ad565b6040516107b29190612ce5565b60405180910390f35b3480156107c757600080fd5b506107e260048036038101906107dd91906133df565b611593565b6040516107ef9190612b58565b60405180910390f35b34801561080457600080fd5b5061081f600480360381019061081a9190613056565b611627565b005b34801561082d57600080fd5b5061084860048036038101906108439190612d3d565b6116ad565b005b34801561085657600080fd5b5061085f6116bf565b60405161086c9190612ce5565b60405180910390f35b60006108808261174d565b9050919050565b61088f6117c7565b610899828261184e565b5050565b6060600080546108ac9061344e565b80601f01602080910402602001604051908101604052809291908181526020018280546108d89061344e565b80156109255780601f106108fa57610100808354040283529160200191610925565b820191906000526020600020905b81548152906001019060200180831161090857829003601f168201915b5050505050905090565b600061093a826119f0565b5061094482611a78565b9050919050565b61095d8282610958611ab5565b611abd565b5050565b600581565b61096e611acf565b60016002811115610982576109816130d5565b5b600f60009054906101000a900460ff1660028111156109a4576109a36130d5565b5b146109e4576040517f08c379a00000000000000000000000000000000000000000000000000000000081526004016109db906134cb565b60405180910390fd5b60008111610a27576040517f08c379a0000000000000000000000000000000000000000000000000000000008152600401610a1e90613537565b60405180910390fd5b61271081601054610a389190613586565b1115610a79576040517f08c379a0000000000000000000000000000000000000000000000000000000008152600401610a7090613606565b60405180910390fd5b600581601160003373ffffffffffffffffffffffffffffffffffffffff1673ffffffffffffffffffffffffffffffffffffffff16815260200190815260200160002054610ac69190613586565b1115610b07576040517f08c379a0000000000000000000000000000000000000000000000000000000008152600401610afe90613672565b60405180910390fd5b80600a54610b159190613692565b3414610b56576040517f08c379a0000000000000000000000000000000000000000000000000000000008152600401610b4d90613720565b60405180910390fd5b600033604051602001610b699190613788565b604051602081830303815290604052805190602001209050610bcf848480806020026020016040519081016040528093929190818152602001838360200280828437600081840152601f19601f82011690508083019250505050505050600e5483611b15565b610c0e576040517f08c379a0000000000000000000000000000000000000000000000000000000008152600401610c05906137ef565b60405180910390fd5b610c183383611b2c565b50610c21611bc9565b505050565b60105481565b600073ffffffffffffffffffffffffffffffffffffffff168273ffffffffffffffffffffffffffffffffffffffff1603610c9e5760006040517f64a0ae92000000000000000000000000000000000000000000000000000000008152600401610c959190612d79565b60405180910390fd5b6000610cb28383610cad611ab5565b611bd3565b90508373ffffffffffffffffffffffffffffffffffffffff168173ffffffffffffffffffffffffffffffffffffffff1614610d28578382826040517f64283d7b000000000000000000000000000000000000000000000000000000008152600401610d1f9392919061380f565b60405180910390fd5b50505050565b600080600060086000868152602001908152602001600020905060008160000160009054906101000a900473ffffffffffffffffffffffffffffffffffffffff16905060008260000160149054906101000a90046bffffffffffffffffffffffff169050600073ffffffffffffffffffffffffffffffffffffffff168273ffffffffffffffffffffffffffffffffffffffff1603610e0f57600760000160009054906101000a900473ffffffffffffffffffffffffffffffffffffffff169150600760000160149054906101000a90046bffffffffffffffffffffffff1690505b6000610e19611ded565b6bffffffffffffffffffffffff16826bffffffffffffffffffffffff1688610e419190613692565b610e4b9190613875565b9050828195509550505050509250929050565b610e66611acf565b600280811115610e7957610e786130d5565b5b600f60009054906101000a900460ff166002811115610e9b57610e9a6130d5565b5b14610edb576040517f08c379a0000000000000000000000000000000000000000000000000000000008152600401610ed2906138f2565b60405180910390fd5b60008111610f1e576040517f08c379a0000000000000000000000000000000000000000000000000000000008152600401610f1590613537565b60405180910390fd5b61271081601054610f2f9190613586565b1115610f70576040517f08c379a0000000000000000000000000000000000000000000000000000000008152600401610f6790613606565b60405180910390fd5b600581601160003373ffffffffffffffffffffffffffffffffffffffff1673ffffffffffffffffffffffffffffffffffffffff16815260200190815260200160002054610fbd9190613586565b1115610ffe576040517f08c379a0000000000000000000000000000000000000000000000000000000008152600401610ff590613672565b60405180910390fd5b80600a5461100c9190613692565b341461104d576040517f08c379a000000000000000000000000000000000000000000000000000000000815260040161104490613720565b60405180910390fd5b6110573382611b2c565b61105f611bc9565b50565b600e5481565b6110706117c7565b8181600c9182611081929190613ac9565b505050565b61271081565b60116020528060005260406000206000915090505481565b6110ac6117c7565b6110b4611acf565b60006110be611391565b73ffffffffffffffffffffffffffffffffffffffff16476040516110e190613bca565b60006040518083038185875af1925050503d806000811461111e576040519150601f19603f3d011682016040523d82523d6000602084013e611123565b606091505b5050905080611167576040517f08c379a000000000000000000000000000000000000000000000000000000000815260040161115e90613c2b565b60405180910390fd5b50611170611bc9565b565b61118d83838360405180602001604052806000815250611488565b505050565b600d60009054906101000a900460ff1681565b6111ad6117c7565b8181600b91826111be929190613ac9565b505050565b6111cb6117c7565b80600f60006101000a81548160ff021916908360028111156111f0576111ef6130d5565b5b021790555050565b600f60009054906101000a900460ff1681565b6000611216826119f0565b9050919050565b600a5481565b600b80546112309061344e565b80601f016020809104026020016040519081016040528092919081815260200182805461125c9061344e565b80156112a95780601f1061127e576101008083540402835291602001916112a9565b820191906000526020600020905b81548152906001019060200180831161128c57829003601f168201915b505050505081565b60008073ffffffffffffffffffffffffffffffffffffffff168273ffffffffffffffffffffffffffffffffffffffff16036113245760006040517f89c62b6400000000000000000000000000000000000000000000000000000000815260040161131b9190612d79565b60405180910390fd5b600360008373ffffffffffffffffffffffffffffffffffffffff1673ffffffffffffffffffffffffffffffffffffffff168152602001908152602001600020549050919050565b6113736117c7565b61137d6000611df7565b565b6113876117c7565b80600e8190555050565b6000600660009054906101000a900473ffffffffffffffffffffffffffffffffffffffff16905090565b6060600180546113ca9061344e565b80601f01602080910402602001604051908101604052809291908181526020018280546113f69061344e565b80156114435780601f1061141857610100808354040283529160200191611443565b820191906000526020600020905b81548152906001019060200180831161142657829003601f168201915b5050505050905090565b61145f611458611ab5565b8383611ebd565b5050565b61146b6117c7565b6001600d60006101000a81548160ff021916908315150217905550565b611493848484610c2c565b6114a761149e611ab5565b8585858561202c565b50505050565b60606114b8826119f0565b50600d60009054906101000a900460ff161561150057600c6114d9836121dd565b6040516020016114ea929190613d56565b604051602081830303815290604052905061158e565b600b805461150d9061344e565b80601f01602080910402602001604051908101604052809291908181526020018280546115399061344e565b80156115865780601f1061155b57610100808354040283529160200191611586565b820191906000526020600020905b81548152906001019060200180831161156957829003601f168201915b505050505090505b919050565b6000600560008473ffffffffffffffffffffffffffffffffffffffff1673ffffffffffffffffffffffffffffffffffffffff16815260200190815260200160002060008373ffffffffffffffffffffffffffffffffffffffff1673ffffffffffffffffffffffffffffffffffffffff16815260200190815260200160002060009054906101000a900460ff16905092915050565b61162f6117c7565b600073ffffffffffffffffffffffffffffffffffffffff168173ffffffffffffffffffffffffffffffffffffffff16036116a15760006040517f1e4fbdf70000000000000000000000000000000000000000000000000000000081526004016116989190612d79565b60405180910390fd5b6116aa81611df7565b50565b6116b56117c7565b80600a8190555050565b600c80546116cc9061344e565b80601f01602080910402602001604051908101604052809291908181526020018280546116f89061344e565b80156117455780601f1061171a57610100808354040283529160200191611745565b820191906000526020600020905b81548152906001019060200180831161172857829003601f168201915b505050505081565b60007f2a55205a000000000000000000000000000000000000000000000000000000007bffffffffffffffffffffffffffffffffffffffffffffffffffffffff1916827bffffffffffffffffffffffffffffffffffffffffffffffffffffffff191614806117c057506117bf826122ab565b5b9050919050565b6117cf611ab5565b73ffffffffffffffffffffffffffffffffffffffff166117ed611391565b73ffffffffffffffffffffffffffffffffffffffff161461184c57611810611ab5565b6040517f118cdaa70000000000000000000000000000000000000000000000000000000081526004016118439190612d79565b60405180910390fd5b565b6000611858611ded565b6bffffffffffffffffffffffff16905080826bffffffffffffffffffffffff1611156118bd5781816040517f6f483d090000000000000000000000000000000000000000000000000000000081526004016118b4929190613db6565b60405180910390fd5b600073ffffffffffffffffffffffffffffffffffffffff168373ffffffffffffffffffffffffffffffffffffffff160361192f5760006040517fb6d9900a0000000000000000000000000000000000000000000000000000000081526004016119269190612d79565b60405180910390fd5b60405180604001604052808473ffffffffffffffffffffffffffffffffffffffff168152602001836bffffffffffffffffffffffff16815250600760008201518160000160006101000a81548173ffffffffffffffffffffffffffffffffffffffff021916908373ffffffffffffffffffffffffffffffffffffffff16021790555060208201518160000160146101000a8154816bffffffffffffffffffffffff02191690836bffffffffffffffffffffffff160217905550905050505050565b6000806119fc8361238d565b9050600073ffffffffffffffffffffffffffffffffffffffff168173ffffffffffffffffffffffffffffffffffffffff1603611a6f57826040517f7e273289000000000000000000000000000000000000000000000000000000008152600401611a669190612de3565b60405180910390fd5b80915050919050565b60006004600083815260200190815260200160002060009054906101000a900473ffffffffffffffffffffffffffffffffffffffff169050919050565b600033905090565b611aca83838360016123ca565b505050565b600260095403611b0b576040517f3ee5aeb500000000000000000000000000000000000000000000000000000000815260040160405180910390fd5b6002600981905550565b600082611b22858461258f565b1490509392505050565b60005b81811015611b6e5760106000815480929190611b4a90613ddf565b9190505550611b5b836010546125e5565b8080611b6690613ddf565b915050611b2f565b5080601160008473ffffffffffffffffffffffffffffffffffffffff1673ffffffffffffffffffffffffffffffffffffffff1681526020019081526020016000206000828254611bbe9190613586565b925050819055505050565b6001600981905550565b600080611bdf8461238d565b9050600073ffffffffffffffffffffffffffffffffffffffff168373ffffffffffffffffffffffffffffffffffffffff1614611c2157611c20818486612603565b5b600073ffffffffffffffffffffffffffffffffffffffff168173ffffffffffffffffffffffffffffffffffffffff1614611cb257611c636000856000806123ca565b6001600360008373ffffffffffffffffffffffffffffffffffffffff1673ffffffffffffffffffffffffffffffffffffffff168152602001908152602001600020600082825403925050819055505b600073ffffffffffffffffffffffffffffffffffffffff168573ffffffffffffffffffffffffffffffffffffffff1614611d35576001600360008773ffffffffffffffffffffffffffffffffffffffff1673ffffffffffffffffffffffffffffffffffffffff168152602001908152602001600020600082825401925050819055505b846002600086815260200190815260200160002060006101000a81548173ffffffffffffffffffffffffffffffffffffffff021916908373ffffffffffffffffffffffffffffffffffffffff160217905550838573ffffffffffffffffffffffffffffffffffffffff168273ffffffffffffffffffffffffffffffffffffffff167fddf252ad1be2c89b69c2b068fc378daa952ba7f163c4a11628f55a4df523b3ef60405160405180910390a4809150509392505050565b6000612710905090565b6000600660009054906101000a900473ffffffffffffffffffffffffffffffffffffffff16905081600660006101000a81548173ffffffffffffffffffffffffffffffffffffffff021916908373ffffffffffffffffffffffffffffffffffffffff1602179055508173ffffffffffffffffffffffffffffffffffffffff168173ffffffffffffffffffffffffffffffffffffffff167f8be0079c531659141344cd1fd0a4f28419497f9722a3daafe3b4186f6b6457e060405160405180910390a35050565b600073ffffffffffffffffffffffffffffffffffffffff168273ffffffffffffffffffffffffffffffffffffffff1603611f2e57816040517f5b08ba18000000000000000000000000000000000000000000000000000000008152600401611f259190612d79565b60405180910390fd5b80600560008573ffffffffffffffffffffffffffffffffffffffff1673ffffffffffffffffffffffffffffffffffffffff16815260200190815260200160002060008473ffffffffffffffffffffffffffffffffffffffff1673ffffffffffffffffffffffffffffffffffffffff16815260200190815260200160002060006101000a81548160ff0219169083151502179055508173ffffffffffffffffffffffffffffffffffffffff168373ffffffffffffffffffffffffffffffffffffffff167f17307eab39ab6107e8899845ad3d59bd9653f200f220920489ca2b5937696c318360405161201f9190612b58565b60405180910390a3505050565b60008373ffffffffffffffffffffffffffffffffffffffff163b11156121d6578273ffffffffffffffffffffffffffffffffffffffff1663150b7a02868685856040518563ffffffff1660e01b815260040161208b9493929190613e7c565b6020604051808303816000875af19250505080156120c757506040513d601f19601f820116820180604052508101906120c49190613edd565b60015b61214b573d80600081146120f7576040519150601f19603f3d011682016040523d82523d6000602084013e6120fc565b606091505b50600081510361214357836040517f64a0ae9200000000000000000000000000000000000000000000000000000000815260040161213a9190612d79565b60405180910390fd5b805160208201fd5b63150b7a0260e01b7bffffffffffffffffffffffffffffffffffffffffffffffffffffffff1916817bffffffffffffffffffffffffffffffffffffffffffffffffffffffff1916146121d457836040517f64a0ae920000000000000000000000000000000000000000000000000000000081526004016121cb9190612d79565b60405180910390fd5b505b5050505050565b6060600060016121ec846126c7565b01905060008167ffffffffffffffff81111561220b5761220a613231565b5b6040519080825280601f01601f19166020018201604052801561223d5781602001600182028036833780820191505090505b509050600082602083010190505b6001156122a0578080600190039150507f3031323334353637383961626364656600000000000000000000000000000000600a86061a8153600a858161229457612293613846565b5b0494506000850361224b575b819350505050919050565b60007f80ac58cd000000000000000000000000000000000000000000000000000000007bffffffffffffffffffffffffffffffffffffffffffffffffffffffff1916827bffffffffffffffffffffffffffffffffffffffffffffffffffffffff1916148061237657507f5b5e139f000000000000000000000000000000000000000000000000000000007bffffffffffffffffffffffffffffffffffffffffffffffffffffffff1916827bffffffffffffffffffffffffffffffffffffffffffffffffffffffff1916145b8061238657506123858261281a565b5b9050919050565b60006002600083815260200190815260200160002060009054906101000a900473ffffffffffffffffffffffffffffffffffffffff169050919050565b80806124035750600073ffffffffffffffffffffffffffffffffffffffff168273ffffffffffffffffffffffffffffffffffffffff1614155b15612537576000612413846119f0565b9050600073ffffffffffffffffffffffffffffffffffffffff168373ffffffffffffffffffffffffffffffffffffffff161415801561247e57508273ffffffffffffffffffffffffffffffffffffffff168173ffffffffffffffffffffffffffffffffffffffff1614155b8015612491575061248f8184611593565b155b156124d357826040517fa9fbf51f0000000000000000000000000000000000000000000000000000000081526004016124ca9190612d79565b60405180910390fd5b811561253557838573ffffffffffffffffffffffffffffffffffffffff168273ffffffffffffffffffffffffffffffffffffffff167f8c5be1e5ebec7d5bd14f71427d1e84f3dd0314c0f7b2291e5b200ac8c7c3b92560405160405180910390a45b505b836004600085815260200190815260200160002060006101000a81548173ffffffffffffffffffffffffffffffffffffffff021916908373ffffffffffffffffffffffffffffffffffffffff16021790555050505050565b60008082905060005b84518110156125da576125c5828683815181106125b8576125b7613f0a565b5b6020026020010151612884565b915080806125d290613ddf565b915050612598565b508091505092915050565b6125ff8282604051806020016040528060008152506128af565b5050565b61260e8383836128d3565b6126c257600073ffffffffffffffffffffffffffffffffffffffff168373ffffffffffffffffffffffffffffffffffffffff160361268357806040517f7e27328900000000000000000000000000000000000000000000000000000000815260040161267a9190612de3565b60405180910390fd5b81816040517f177e802f0000000000000000000000000000000000000000000000000000000081526004016126b9929190612f56565b60405180910390fd5b505050565b600080600090507a184f03e93ff9f4daa797ed6e38ed64bf6a1f0100000000000000008310612725577a184f03e93ff9f4daa797ed6e38ed64bf6a1f010000000000000000838161271b5761271a613846565b5b0492506040810190505b6d04ee2d6d415b85acef81000000008310612762576d04ee2d6d415b85acef8100000000838161275857612757613846565b5b0492506020810190505b662386f26fc10000831061279157662386f26fc10000838161278757612786613846565b5b0492506010810190505b6305f5e10083106127ba576305f5e10083816127b0576127af613846565b5b0492506008810190505b61271083106127df5761271083816127d5576127d4613846565b5b0492506004810190505b6064831061280257606483816127f8576127f7613846565b5b0492506002810190505b600a8310612811576001810190505b80915050919050565b60007f01ffc9a7000000000000000000000000000000000000000000000000000000007bffffffffffffffffffffffffffffffffffffffffffffffffffffffff1916827bffffffffffffffffffffffffffffffffffffffffffffffffffffffff1916149050919050565b600081831061289c576128978284612994565b6128a7565b6128a68383612994565b5b905092915050565b6128b983836129ab565b6128ce6128c4611ab5565b600085858561202c565b505050565b60008073ffffffffffffffffffffffffffffffffffffffff168373ffffffffffffffffffffffffffffffffffffffff161415801561298b57508273ffffffffffffffffffffffffffffffffffffffff168473ffffffffffffffffffffffffffffffffffffffff16148061294c575061294b8484611593565b5b8061298a57508273ffffffffffffffffffffffffffffffffffffffff1661297283611a78565b73ffffffffffffffffffffffffffffffffffffffff16145b5b90509392505050565b600082600052816020526040600020905092915050565b600073ffffffffffffffffffffffffffffffffffffffff168273ffffffffffffffffffffffffffffffffffffffff1603612a1d5760006040517f64a0ae92000000000000000000000000000000000000000000000000000000008152600401612a149190612d79565b60405180910390fd5b6000612a2b83836000611bd3565b9050600073ffffffffffffffffffffffffffffffffffffffff168173ffffffffffffffffffffffffffffffffffffffff1614612a9f5760006040517f73c6ac6e000000000000000000000000000000000000000000000000000000008152600401612a969190612d79565b60405180910390fd5b505050565b6000604051905090565b600080fd5b600080fd5b60007fffffffff0000000000000000000000000000000000000000000000000000000082169050919050565b612aed81612ab8565b8114612af857600080fd5b50565b600081359050612b0a81612ae4565b92915050565b600060208284031215612b2657612b25612aae565b5b6000612b3484828501612afb565b91505092915050565b60008115159050919050565b612b5281612b3d565b82525050565b6000602082019050612b6d6000830184612b49565b92915050565b600073ffffffffffffffffffffffffffffffffffffffff82169050919050565b6000612b9e82612b73565b9050919050565b612bae81612b93565b8114612bb957600080fd5b50565b600081359050612bcb81612ba5565b92915050565b60006bffffffffffffffffffffffff82169050919050565b612bf281612bd1565b8114612bfd57600080fd5b50565b600081359050612c0f81612be9565b92915050565b60008060408385031215612c2c57612c2b612aae565b5b6000612c3a85828601612bbc565b9250506020612c4b85828601612c00565b9150509250929050565b600081519050919050565b600082825260208201905092915050565b60005b83811015612c8f578082015181840152602081019050612c74565b60008484015250505050565b6000601f19601f8301169050919050565b6000612cb782612c55565b612cc18185612c60565b9350612cd1818560208601612c71565b612cda81612c9b565b840191505092915050565b60006020820190508181036000830152612cff8184612cac565b905092915050565b6000819050919050565b612d1a81612d07565b8114612d2557600080fd5b50565b600081359050612d3781612d11565b92915050565b600060208284031215612d5357612d52612aae565b5b6000612d6184828501612d28565b91505092915050565b612d7381612b93565b82525050565b6000602082019050612d8e6000830184612d6a565b92915050565b60008060408385031215612dab57612daa612aae565b5b6000612db985828601612bbc565b9250506020612dca85828601612d28565b9150509250929050565b612ddd81612d07565b82525050565b6000602082019050612df86000830184612dd4565b92915050565b600080fd5b600080fd5b600080fd5b60008083601f840112612e2357612e22612dfe565b5b8235905067ffffffffffffffff811115612e4057612e3f612e03565b5b602083019150836020820283011115612e5c57612e5b612e08565b5b9250929050565b600080600060408486031215612e7c57612e7b612aae565b5b600084013567ffffffffffffffff811115612e9a57612e99612ab3565b5b612ea686828701612e0d565b93509350506020612eb986828701612d28565b9150509250925092565b600080600060608486031215612edc57612edb612aae565b5b6000612eea86828701612bbc565b9350506020612efb86828701612bbc565b9250506040612f0c86828701612d28565b9150509250925092565b60008060408385031215612f2d57612f2c612aae565b5b6000612f3b85828601612d28565b9250506020612f4c85828601612d28565b9150509250929050565b6000604082019050612f6b6000830185612d6a565b612f786020830184612dd4565b9392505050565b6000819050919050565b612f9281612f7f565b82525050565b6000602082019050612fad6000830184612f89565b92915050565b60008083601f840112612fc957612fc8612dfe565b5b8235905067ffffffffffffffff811115612fe657612fe5612e03565b5b60208301915083600182028301111561300257613001612e08565b5b9250929050565b600080602083850312156130205761301f612aae565b5b600083013567ffffffffffffffff81111561303e5761303d612ab3565b5b61304a85828601612fb3565b92509250509250929050565b60006020828403121561306c5761306b612aae565b5b600061307a84828501612bbc565b91505092915050565b6003811061309057600080fd5b50565b6000813590506130a281613083565b92915050565b6000602082840312156130be576130bd612aae565b5b60006130cc84828501613093565b91505092915050565b7f4e487b7100000000000000000000000000000000000000000000000000000000600052602160045260246000fd5b60038110613115576131146130d5565b5b50565b600081905061312682613104565b919050565b600061313682613118565b9050919050565b6131468161312b565b82525050565b6000602082019050613161600083018461313d565b92915050565b61317081612f7f565b811461317b57600080fd5b50565b60008135905061318d81613167565b92915050565b6000602082840312156131a9576131a8612aae565b5b60006131b78482850161317e565b91505092915050565b6131c981612b3d565b81146131d457600080fd5b50565b6000813590506131e6816131c0565b92915050565b6000806040838503121561320357613202612aae565b5b600061321185828601612bbc565b9250506020613222858286016131d7565b9150509250929050565b600080fd5b7f4e487b7100000000000000000000000000000000000000000000000000000000600052604160045260246000fd5b61326982612c9b565b810181811067ffffffffffffffff8211171561328857613287613231565b5b80604052505050565b600061329b612aa4565b90506132a78282613260565b919050565b600067ffffffffffffffff8211156132c7576132c6613231565b5b6132d082612c9b565b9050602081019050919050565b82818337600083830152505050565b60006132ff6132fa846132ac565b613291565b90508281526020810184848401111561331b5761331a61322c565b5b6133268482856132dd565b509392505050565b600082601f83011261334357613342612dfe565b5b81356133538482602086016132ec565b91505092915050565b6000806000806080858703121561337657613375612aae565b5b600061338487828801612bbc565b945050602061339587828801612bbc565b93505060406133a687828801612d28565b925050606085013567ffffffffffffffff8111156133c7576133c6612ab3565b5b6133d38782880161332e565b91505092959194509250565b600080604083850312156133f6576133f5612aae565b5b600061340485828601612bbc565b925050602061341585828601612bbc565b9150509250929050565b7f4e487b7100000000000000000000000000000000000000000000000000000000600052602260045260246000fd5b6000600282049050600182168061346657607f821691505b6020821081036134795761347861341f565b5b50919050565b7f416c6c6f776c6973742073616c65206e6f742061637469766500000000000000600082015250565b60006134b5601983612c60565b91506134c08261347f565b602082019050919050565b600060208201905081810360008301526134e4816134a8565b9050919050565b7f5175616e74697479206d757374206265203e2030000000000000000000000000600082015250565b6000613521601483612c60565b915061352c826134eb565b602082019050919050565b6000602082019050818103600083015261355081613514565b9050919050565b7f4e487b7100000000000000000000000000000000000000000000000000000000600052601160045260246000fd5b600061359182612d07565b915061359c83612d07565b92508282019050808211156135b4576135b3613557565b5b92915050565b7f45786365656473206d617820737570706c790000000000000000000000000000600082015250565b60006135f0601283612c60565b91506135fb826135ba565b602082019050919050565b6000602082019050818103600083015261361f816135e3565b9050919050565b7f457863656564732077616c6c6574206c696d6974000000000000000000000000600082015250565b600061365c601483612c60565b915061366782613626565b602082019050919050565b6000602082019050818103600083015261368b8161364f565b9050919050565b600061369d82612d07565b91506136a883612d07565b92508282026136b681612d07565b915082820484148315176136cd576136cc613557565b5b5092915050565b7f496e636f7272656374204554482076616c756500000000000000000000000000600082015250565b600061370a601383612c60565b9150613715826136d4565b602082019050919050565b60006020820190508181036000830152613739816136fd565b9050919050565b60008160601b9050919050565b600061375882613740565b9050919050565b600061376a8261374d565b9050919050565b61378261377d82612b93565b61375f565b82525050565b60006137948284613771565b60148201915081905092915050565b7f496e76616c69642070726f6f6600000000000000000000000000000000000000600082015250565b60006137d9600d83612c60565b91506137e4826137a3565b602082019050919050565b60006020820190508181036000830152613808816137cc565b9050919050565b60006060820190506138246000830186612d6a565b6138316020830185612dd4565b61383e6040830184612d6a565b949350505050565b7f4e487b7100000000000000000000000000000000000000000000000000000000600052601260045260246000fd5b600061388082612d07565b915061388b83612d07565b92508261389b5761389a613846565b5b828204905092915050565b7f5075626c69632073616c65206e6f742061637469766500000000000000000000600082015250565b60006138dc601683612c60565b91506138e7826138a6565b602082019050919050565b6000602082019050818103600083015261390b816138cf565b9050919050565b600082905092915050565b60008190508160005260206000209050919050565b60006020601f8301049050919050565b600082821b905092915050565b60006008830261397f7fffffffffffffffffffffffffffffffffffffffffffffffffffffffffffffffff82613942565b6139898683613942565b95508019841693508086168417925050509392505050565b6000819050919050565b60006139c66139c16139bc84612d07565b6139a1565b612d07565b9050919050565b6000819050919050565b6139e0836139ab565b6139f46139ec826139cd565b84845461394f565b825550505050565b600090565b613a096139fc565b613a148184846139d7565b505050565b5b81811015613a3857613a2d600082613a01565b600181019050613a1a565b5050565b601f821115613a7d57613a4e8161391d565b613a5784613932565b81016020851015613a66578190505b613a7a613a7285613932565b830182613a19565b50505b505050565b600082821c905092915050565b6000613aa060001984600802613a82565b1980831691505092915050565b6000613ab98383613a8f565b9150826002028217905092915050565b613ad38383613912565b67ffffffffffffffff811115613aec57613aeb613231565b5b613af6825461344e565b613b01828285613a3c565b6000601f831160018114613b305760008415613b1e578287013590505b613b288582613aad565b865550613b90565b601f198416613b3e8661391d565b60005b82811015613b6657848901358255600182019150602085019450602081019050613b41565b86831015613b835784890135613b7f601f891682613a8f565b8355505b6001600288020188555050505b50505050505050565b600081905092915050565b50565b6000613bb4600083613b99565b9150613bbf82613ba4565b600082019050919050565b6000613bd582613ba7565b9150819050919050565b7f5769746864726177206661696c65640000000000000000000000000000000000600082015250565b6000613c15600f83612c60565b9150613c2082613bdf565b602082019050919050565b60006020820190508181036000830152613c4481613c08565b9050919050565b600081905092915050565b60008154613c638161344e565b613c6d8186613c4b565b94506001821660008114613c885760018114613c9d57613cd0565b60ff1983168652811515820286019350613cd0565b613ca68561391d565b60005b83811015613cc857815481890152600182019150602081019050613ca9565b838801955050505b50505092915050565b6000613ce482612c55565b613cee8185613c4b565b9350613cfe818560208601612c71565b80840191505092915050565b7f2e6a736f6e000000000000000000000000000000000000000000000000000000600082015250565b6000613d40600583613c4b565b9150613d4b82613d0a565b600582019050919050565b6000613d628285613c56565b9150613d6e8284613cd9565b9150613d7982613d33565b91508190509392505050565b6000613da0613d9b613d9684612bd1565b6139a1565b612d07565b9050919050565b613db081613d85565b82525050565b6000604082019050613dcb6000830185613da7565b613dd86020830184612dd4565b9392505050565b6000613dea82612d07565b91507fffffffffffffffffffffffffffffffffffffffffffffffffffffffffffffffff8203613e1c57613e1b613557565b5b600182019050919050565b600081519050919050565b600082825260208201905092915050565b6000613e4e82613e27565b613e588185613e32565b9350613e68818560208601612c71565b613e7181612c9b565b840191505092915050565b6000608082019050613e916000830187612d6a565b613e9e6020830186612d6a565b613eab6040830185612dd4565b8181036060830152613ebd8184613e43565b905095945050505050565b600081519050613ed781612ae4565b92915050565b600060208284031215613ef357613ef2612aae565b5b6000613f0184828501613ec8565b91505092915050565b7f4e487b7100000000000000000000000000000000000000000000000000000000600052603260045260246000fdfea2646970667358221220297bd434d7797c329d315574c5473f64c5eecca15eedecd5664b63346db3b1d764736f6c63430008140033",
  "linkReferences": {},
  "deployedLinkReferences": {}
}